:10000000020003758127120090E582600302006FF1
:10001000780079007A007B007C007D00EC4D601C4C
:1000200088828983E493A3A882A9838A828B83F040
:10003000A3AA82AB831CBCFFE31D80E07582007520
:1000400083007C007D00EC4D600AE4F0A31CBCFF43
:10005000F51D80F27582007583007C007D00EC4DFB
:10006000600AE4F0A31CBCFFF51D80F212008F12A1
:1000700000D380FE48656C6C6F2C20776F726C64C7
:10008000210D0A003C4E4F20464C4F41543E002269
:1000900075A7007597DE7597AD43FF8075EF027504
:1000A000A70075A90075A900E5A930E7FB43A410D6
:1000B00075E10175E20075E340759810438E08758F
:1000C0008D96858D8B53890F438920D28ED2997559
:1000D0008200227474C0E07400C0E07480C0E0123A
:1000E00000FE1581158115812202073F8582188542
:1000F000831985F01A85091B9000E90201A8C00840
:10010000858108E50824FBF51BE50824FBF8861823
:1001100008861908861A9000E91201A8D00822AAB8
:10012000827430C0E07401C0E0C00AC00B8A822231
:100130000511E4B51102051222AA8274302AFA24AC
:10014000C6500A74072AFA3000034302208A82024A
:10015000011FE582FAC4540FF582C002120139D0A2
:1001600002740F5AF582020139AA0CAB0DAC0EAD28
:100170000FAE10751720EE2EFEED235401FF420640
:10018000EA2AFAEB33FBEC33FCED33FDC3EE9513B7
:100190004008EEC39513FE430201D517D98A0C8B94
:1001A0000D8C0E8D0F8E102285820A85830BE4F54F
:1001B00011F512AA18AB19AC1A8A828B838CF01233
:1001C0000754FD74012AF518E43BF5198C1AEDFA71
:1001D0007003020738BA25028003020730C204C246
:1001E00005C206C207C208C209C20AC20BC201C2C6
:1001F00002C2037513007514007515FFAB18AC1916
:10020000AD1A8B828C838DF0120754FAA3AB82ACAB
:10021000838B188C198D1ABA25078A8212011F80C8
:10022000928A06BE3000402E8A06EE24C64027740D
:10023000FFB51513E51475F00AA4FEEA24D02EF5D7
:100240001470BFD20580BBE51575F00AA4FEEA2440
:10025000D02EF51580ACBA2E0A74FFB515A475150D
:1002600000809F8A06BE6100400E8A06EE2485400B
:10027000075302DFD2008002C200BA20028075BAA2
:100280002303020303BA2A03020308BA2B02805F86
:10029000BA2D028055BA4202805FBA430302034D71
:1002A000BA4403020488BA45030204A2BA46030210
:1002B000049EBA47030204A6BA4903020488BA4C52
:1002C00002803BBA4E030204AABA4F0302048FBA5B
:1002D0005003020421BA5303020371BA5503020406
:1002E00094BA58030204990204D4D204020202D23E
:1002F00006020202D207020202D209020202D20A56
:10030000020202D20B02020274FFB5152030090B63
:10031000E51B14F8881B8614020202E51B24FEF874
:10032000881B8606088607188E1402020230090B05
:10033000E51B14F8881B8615020202E51B24FEF853
:10034000881B8606088607188E1502020230090AE5
:10035000E51B14F8881B8602800FE51B24FEF88835
:100360001B8603088604188B028A8212011F02046E
:10037000D9E51B24FDF8881B86030886040886053A
:1003800018188B0C8C0D8D0E8B828C838DF01207C0
:1003900089AB82AC838B1674FFB5150385161520C7
:1003A000041DC3E51695145016E514C39516F514EF
:1003B000AB141514EB600875822012011F80F185C3
:1003C0000C82850D83850EF0120754FBFA6029AB71
:1003D000151515C3E464808BF063F08095F0501818
:1003E0008A8212011FAB0CAC0DAD0E0BBB00010CD1
:1003F0008B0C8C0D8D0E80C72004030204D9C3E53D
:1004000016951440030204D9E514C39516F514ABF0
:10041000141514EB70030204D975822012011F8099
:10042000EEE51B24FDF8881B860308860408860574
:1004300018188B0C8C0D8D0EE50EFB30E7047A43FB
:100440008013EB546060047A50800AEB30E6047A43
:100450004980027A588A82C00212011F75823A12BC
:10046000011F75823012011F75827812011FD002A0
:10047000BA4902800BBA50028006850D82120152E1
:10048000850C821201528051D20875130A804A7578
:100490001308804575130A8040751310803BD20104
:1004A0008037D2028033D203802FE51B24FDF888E9
:1004B0001B860308860408860518188B0C8C0D8D86
:1004C0000E8B828C838DF0E511120770A3E512125A
:1004D000077080058A8212011F2001062002033066
:1004E000035AE51B24FCF8881B860308860408864B
:1004F000050886061818188B0C8C0D8D0E8E0F753E
:100500000C84750D00750E80850C1C850D1D850EE7
:100510001E7401251CFEE4351DFFAB1E8E0C8F0DD5
:100520008B0E851C82851D83851EF0120754FBFAF5
:1005300070030201B38A8212011F80CCE51370039D
:100540000201B37B2730092BE51B14F8881BE6FC5E
:100550003395E0FDFEFF8C0C8D0D8E0E8F0F200865
:100560005EAC0C7D007E007F008C0C8D0D8E0E8F9E
:100570000F804C300A1FE51B24FCF8881B860408FA
:1005800086050886060886071818188C0C8D0D8EAF
:100590000E8F0F802AE51B24FEF8881B8604088630
:1005A0000518ED3395E0FEFF8C0C8D0D8E0E8F0F30
:1005B00020080CAC0CAD0D7E007F008E0E8F0F302E
:1005C0000B43E50C450D450E450F60397408B51316
:1005D0000C758230C00312011FD00380287410B53F
:1005E0001323758230C00312011FD00330000C7535
:1005F0008278C00312011FD003800A758258C0039D
:1006000012011FD003300825AC0CAD0DAE0EE50F66
:10061000FF30E717C3E49CFCE49DFDE49EFEE49FED
:10062000FF8C0C8D0D8E0E8F0F8002C20875160088
:10063000D20C8B00751000C000120169D000200C94
:100640000DE510C4FCE6FD4CF61888038002A610E8
:100650000516B20CE50C450D450E450F70D6880306
:10066000E514700375140120051A200417E516041B
:10067000FCC39514500E758220C00312011FD003D5
:10068000151480E930080E75822DC00312011FD0A9
:100690000315148024E516602030060E75822BC0E9
:1006A0000312011FD0031514800F30070C75822030
:1006B000C00312011FD003151420041EAC1415141E
:1006C000C3E5169C50273005047C3080027C208CCA
:1006D00082C00312011FD00380E2C3E516951450B7
:1006E00009E514C39516F51480037514008B00AB4F
:1006F000161516EB6022B20C200C0A08E6C4540F43
:10070000FB8B1080078603740F5BF510851082C089
:1007100000120139D00080D72004030201B3AB14CA
:100720001514EB70030201B375822012011F80EED5
:100730008A8212011F0201B385118285128322AAC7
:1007400082BA0A0810990280FB75990D10990280EF
:10075000FB8A992220F71430F6148883A88220F5AA
:1007600007E6A88375830022E280F7E49322E02263
:1007700020F71030F6118883A88220F507F6A883A9
:1007800075830022F280F7F022AA82AB83ACF07D61
:10079000007E008A828B838CF0120754FFA3AA820A
:1007A000AB83EF60070DBD00EA0E80E78D828E837C
:1007B0002200000000000000000000000000000017
:00000001FF
