:1000000002000375815D1200ACE582600302006F9F
:10001000780079007A007B007C007D00EC4D601C4C
:1000200088828983E493A3A882A9838A828B83F040
:10003000A3AA82AB831CBCFFE31D80E07582007520
:1000400083007C007D00EC4D600AE4F0A31CBCFF43
:10005000F51D80F27582007583007C007D00EC4DFB
:10006000600AE4F0A31CBCFFF51D80F21200AB1285
:10007000031980FE43617061636974616E63653A60
:10008000000D543D2566206D73202020200A000DB0
:100090002063617061636974616E63653D256620EC
:1000A00075460A0025662075460A002275A7007568
:1000B00097DE7597AD75A71075C12075A70075A956
:1000C0000075A900E5A930E7FB75A90375A903E54B
:1000D000A930E7FB43A41075E10175E20075E34028
:1000E000759810858E8E758DE6858D8B53890F439F
:1000F0008920D28ED29975820022AA82438E4075C1
:1001000092B87593FF8592948593957591047B00C1
:10011000C3EB9A500BE59130E7FB53917F0B80F0D6
:1001200075910022AA82AB83BA0004BB000122753C
:1001300082F9C002C0031200FA7582F91200FA7542
:1001400082F91200FA7582FA1200FAD003D0021A6C
:10015000BAFF011B80D25389F0438901C28C22D29D
:10016000A07582281200FAC2A022AA828AE0A2E721
:100170009290A2E69291A2E59292A2E49293C0029A
:1001800012015F7582281200FAD0028AE0A2E3927F
:1001900090A2E29291A2E19292A2E0929302015F78
:1001A000AA82D2978A8212016A900002020124AACE
:1001B00082C2978A8212016A900005020124C2A0BD
:1001C0009000141201247582331201AF758233122C
:1001D00001AF7582321201AF7582281201AF7582AC
:1001E0000C1201AF7582011201AF900014020124BC
:1001F000AA82AB83ACF07402B523047DC080027D7B
:10020000808D82C002C003C0041201AF90000512AD
:100210000124D004D003D0027D007E00ED2AFFEE41
:100220003BF88C018F82888389F012054AFF602099
:100230008F82C002C003C004C005C0061201A0D056
:1002400006D005D004D003D0020DBD00CF0E80CC67
:100250003000248D028E03C3EA9410EB64809480F6
:100260005015758220C002C0031201A0D003D00235
:100270000ABA00E30B80E02285822685832785F079
:1002800028E4F529F52AE52424FFFFE52534FFF8C5
:1002900079007A00C3E99FEA648088F063F0809572
:1002A000F05059C002C007C000C0011206A3AB82C3
:1002B000D001D000D007D002BB0A028003BB0D1DC5
:1002C000E5292526FCE52A3527FDAE288C828D837D
:1002D0008EF0E41206B6852982852A8322E9252636
:1002E000FCEA3527FDAE288C828D838EF0EB12065A
:1002F000B609B900010A89298A2A8098E5292526A4
:10030000FAE52A3527FBAC288A828B838CF0E4122D
:1003100006B6852482852583221201561201BE90DD
:1003200001F4120124752301D20090007475F0804D
:100330001201F0758A00758C00C28D752200208133
:10034000FD3081FDD28C308109108D0280F80522AC
:1003500080F4208109108D0280F8052280F4C28C7F
:10036000852282120609AA82AB83ACF0FDC002C0CE
:1003700003C004C00590000075F080744712056644
:10038000AA82AB83ACF0FDE58124FCF581858C82EB
:10039000C002C003C004C005120609AE82AF83A824
:1003A000F0F9C006C007C000C00190000075F080E1
:1003B0007443120566AE82AF83A8F0F9E58124FC90
:1003C000F581D005D004D003D002C006C007C0001C
:1003D000C0018A828B838CF0ED120614AA82AB8353
:1003E000ACF0FDE58124FCF581AE8A7F008E828F22
:1003F00083C002C003C004C005120764AE82AF838D
:10040000A8F0F9D005D004D003D002C006C007C0C0
:1004100000C0018A828B838CF0ED120614AA82AB95
:1004200083ACF0FDE58124FCF581C002C003C0046B
:10043000C00590F4FC75F0327434120566AA82ABE4
:1004400083ACF0FDE58124FCF581C002C003C0044B
:10045000C005C002C003C004C00590C80075F0AF5D
:100460007449120566AE82AF83A8F0F9E58124FCD9
:10047000F581E4C0E07410C0E0746FC0E07446C061
:10048000E08E828F8388F0E9120771AE82AF83A875
:10049000F0F9E58124FCF581D005D004D003D00229
:1004A000C006C007C000C001C002C003C004C00530
:1004B00090000075F07A7444120566AA82AB83AC92
:1004C000F0FDE58124FCF581C002C003C004C00535
:1004D0007481C0E07400C0E07480C0E0120682E560
:1004E0008124F9F5819001F4120124D001D000D0CB
:1004F00007D006C006C007C000C001C006C007C0C4
:1005000000C001748FC0E07400C0E07480C0E012CD
:100510000682E58124F9F58174A4C0E07400C0E08E
:100520007480C0E0742BC0E07400C0E07440C0E090
:1005300012071EE58124F6F581752302D200900092
:100540002B75F0401201F002033320F71430F6143B
:100550008883A88220F507E6A88375830022E280BD
:10056000F7E49322E022120912BC00030208B1EF63
:1005700060FA30D502B2D1E583B4FF030208C7E5C3
:1005800082B4FF030208C7258340072482400B0280
:1005900008B124831450030208C7F582EA8DF0A441
:1005A000A8F0EA8EF0A428F8E435F0F9EB8DF0A479
:1005B00028E935F0F9E433CA8FF0A429F9EA35F0D7
:1005C000FAEBF88EF0A429F9EA35F0FAE433FBEC03
:1005D0008DF0A429F9EA35F0FAE43BFBE88FF0A4AA
:1005E0002AFAEB35F0FBE433CCFD8EF0A42AFAEBCB
:1005F00035F0FBE43CFCED8FF0A42BFBEC35F0FC7C
:1006000020E7031208DF020890E4AC82FBFAF974D9
:10061000860209491209127900E583B58202800D2C
:100620005003120953E583C3958212096DE5D0C4C6
:1006300065D020E117EA2DFAEB3EFBEC3FFC5009B8
:10064000740112096DEC4480FC020890C3EA9DFA23
:10065000EB9EFBEC9FFC500FC3E499F9E49AFAE49B
:100660009BFBE49CFCB2D11208DF02089002133C11
:1006700085824A85834B85F04C85104D90066D022E
:100680000D8FC008858108E50824FBF54DE5082499
:10069000FBF8864A08864B08864C90066D120D8F33
:1006A000D0082210980280FBAA998A82C0021213F5
:1006B0003CD0028A822220F71030F6118883A8826B
:1006C00020F507F6A88375830022F280F7F022AAAE
:1006D00082AB09AC0AAD0B8B828C838DF0EA1206DB
:1006E000B60509E4B50902050A2285820985830A4F
:1006F00085F00B850C4A850D4B850E4C850F4D9072
:1007000006CF120D8FAA82AB83AC09AD0AAE0B8C5B
:10071000828D838EF0E41206B68A828B8322C00813
:10072000858108E50824F8F54DE50824FBF88609DD
:1007300008860A08860BE50824F8F8864A08864BDE
:1007400008864C9006CF120D8FAA82AB83AC09AD00
:100750000AAE0B8C828D838EF0E41206B68A828BF1
:1007600083D00822AC83AB827A007900748E0213A6
:100770005A12091230D502B2D1BF0009BC000302DF
:1007800008D40208C7BC00030208B1E583B4FF0B1C
:10079000E582B4FF030208D40208B1E582B4FF0386
:1007A0000208C7C395835007247F400B0208B12479
:1007B000801450030208C7C0E0E4CCCBCAF98D1105
:1007C0008E128F13EF54F0C4F5147583068514F060
:1007D000EB84F582E9C4F9EAC4FAEBC4FBEC540FEC
:1007E000C47803D6FC18EBD6FB18EAD6FA8582F05B
:1007F000EDA4A8F0FD8582F0EEA428FEE435F0F823
:100800008582F0EFA428FFE435F0F8E99DF9EA9E2F
:10081000FAEB9FFBEC98FCAD11AE12AF1330E71072
:100820001582E92DF9EA3EFAEB3FFBE43CFC80ED52
:10083000C082D58398C3E933F9EA33FAEB33FBEC92
:1008400033FCC3E99DEA9EEB9FEC9400B3E413F9FB
:10085000D002D0E0C44AFAD003D0E0C44BFBD004AD
:10086000D0E0F5F0540FC44CFCD082158230F40F68
:10087000D3EC13FCEB13FBEA13FAE913F90582E955
:1008800030E70A74012AFAE43BFBE43CFC0208A8C6
:10089000B98003EA13B34010EA2401FAE43BFBE415
:1008A0003CFC50047C800582BC000EBB000BBA00EF
:1008B00008E4F5F0F583F58222A2D1E582138CF0ED
:1008C00092F78B838A8222E4F583F58275F080F4B7
:1008D000A2D11322E4F583F58275F0C0747F2278EB
:1008E00004EC7011E58224F8500AF582E4C9CACB01
:1008F000FCD8EF22EC7820058220E713D582012274
:10090000C3E933F9EA33FAEB33FBEC33FCD8EA15ED
:100910008222AA82AB83A2F73392D16002D2F7F58A
:1009200082ACF0E58124F9F8E6FD08E6FE0886F0E1
:1009300008E6A2F73392D56002D2F7F583AFF02232
:10094000FCABF0AA83A982749EC2D1F5821208DFA3
:10095000020890E582C583F582A2D133A2D592D157
:100960001392D5ECCFFCEBCEFBEACDFA226040F837
:100970002582500274FFF582E824F8501ECCCBCAC1
:10098000F9E4CC24F85014CBCAF9E4CB24F8500B8A
:10099000CAF9E4CA24F8500379002224086010F848
:1009A000C3EC13FCEB13FBEA13FAE913F9D8F122B9
:1009B000AA8274C1C0E07409C0E0C03CC03D8A8214
:1009C000220543E4B54302054422AA8274302AFA80
:1009D00024C6500A74072AFA3001034302208A828F
:1009E0000209B0E582FAC4540FF582C0021209CAA6
:1009F000D002740F5AF5820209CAAA3EAB3FAC403E
:100A0000AD41AE42754920EE2EFEED235401FF426A
:100A100006EA2AFAEB33FBEC33FCED33FDC3EE952B
:100A2000454008EEC39545FE430201D549D98A3EAB
:100A30008B3F8C408D418E4222785AE624D075F04F
:100A40000AA4FA785BE624D02AFA78598603BB2DEB
:100A500004C3E49AFA754501C3E464808AF063F044
:100A60008095F050297549038A0374F62549401C86
:100A70000545E54914244EF8E549244EF98704A6B6
:100A800004772E1BEBFA6004054980DE8B02EA3006
:100A9000E70D784F86037850A603784F762E0AE547
:100AA00047600AE54704FB2545F5458005300C0203
:100AB0000545784E8603E4BB2D0104FB7006200734
:100AC000033008020545300503020B80300657EB62
:100AD000600C75822DC0021209B0D002801C300754
:100AE0000C75822BC0021209B0D002800D30080AAA
:100AF000758220C0021209B0D002784F8604BC2E45
:100B00000C758230C0021209B0D0021546AC4615F1
:100B100046C3E5459C4003020BC4758230C00212F7
:100B200009B0D00280E7AC461546C3E5459C500CA1
:100B3000758220C0021209B0D00280EA784E860485
:100B4000BC2D0C75822DC0021209B0D002801C3061
:100B5000070C75822BC0021209B0D002800D30083C
:100B60000A758220C0021209B0D002784F8604BCF8
:100B70002E52758230C0021209B0D0021546804450
:100B8000EB600E75822DC0021209B0D002154680AE
:100B90002030070E75822BC0021209B0D002154614
:100BA000800F30080C758220C0021209B0D00215E7
:100BB00046784F8603BB2E0C758230C0021209B0F6
:100BC000D0021546754901C20EE549244EF8860348
:100BD000BB4503020C81BB2E348A03C3E464808BC3
:100BE000F063F08095F0500F758230C0031209B0A9
:100BF000D0031B8B0280E48B02D20EE547703820B5
:100C00000C03020C8175822E1209B08074300E27FD
:100C10008A03EB30E71FC3E464808547F063F0800C
:100C200095F0500C758230C0031209B0D0031547FF
:100C30000B8B0280DD8B02300E0EC3E4648085478F
:100C4000F063F08095F05021E549244EF886038B3F
:100C500082C0021209B0D002300E0EE549244EF8CF
:100C60008603BB2E02800215471546C3E4648085C7
:100C700047F063F08095F04003200E050549020B14
:100C8000C9C3E464808547F063F08095F0500A752D
:100C900082301209B0154780E830050FAA46154684
:100CA000EA60087582201209B080F122E5477003DE
:100CB000300C0D74072547FAE546C39AF5468006C1
:100CC000E54624FAF546754900784E8602BA2B0FA0
:100CD00020070C784E76202008057549010546202E
:100CE0000519AA46C3E464808AF063F08095F05049
:100CF0000A7582201209B0154680E7C20EE5492424
:100D00004EF88602BA00028069BA451F30010276A9
:100D100065C3E464808547F063F08095F0500A7500
:100D200082301209B0154780E8D20EC3E54994021B
:100D3000E433FA7014EA700EC3E464808547F0630C
:100D4000F08095F04003300E16E549244EF88602F7
:100D50008A821209B0E54924FD50121547800E74AD
:100D600002B54909300C0675822E1209B0054902F8
:100D70000CFD300519AA46C3E464808AF063F08054
:100D800095F0500A7582201209B0154680E7228539
:100D9000823C85833DE4F543F544AA4AAB4BAC4C19
:100DA0008A828B838CF012054AFD74012AF54AE48D
:100DB0003BF54B8C4CEDFA7003021335BA250280DB
:100DC0000302132DC205C206C207C208C209C20A25
:100DD000C20BC20CC202C203C204754500754600B4
:100DE0007547FFAB4AAC4BAD4C8B828C838DF012B8
:100DF000054AFAA3AB82AC838B4A8C4B8D4CBA2547
:100E0000078A821209B080928A06BE3000402E8A7C
:100E100006EE24C6402774FFB54713E54675F00A71
:100E2000A4FEEA24D02EF54670BFD20680BBE5476B
:100E300075F00AA4FEEA24D02EF54780ACBA2E0A3B
:100E400074FFB547A4754700809F8A06BE610040C5
:100E50000E8A06EE248540075302DFD2018002C2CB
:100E600001BA20028075BA2303020EEABA2A0302ED
:100E70000EEFBA2B02805FBA2D028055BA42028073
:100E80005FBA4303020F34BA440302106FBA45033A
:100E9000021089BA4603021085BA470302108DBAC0
:100EA000490302106FBA4C02803BBA4E0302109104
:100EB000BA4F03021076BA5003021008BA53030265
:100EC0000F58BA550302107BBA5803021080021063
:100ED000BBD205020DE9D207020DE9D208020DE9E5
:100EE000D20A020DE9D20B020DE9D20C020DE9740F
:100EF000FFB54720300A0BE54D14F8884D864602B1
:100F00000DE9E54D24FEF8884D8606088607188E03
:100F100046020DE9300A0BE54D14F8884D8647026C
:100F20000DE9E54D24FEF8884D8606088607188EE3
:100F300047020DE9300A0AE54D14F8884D86028013
:100F40000FE54D24FEF8884D8603088604188B02B1
:100F50008A821209B00210C0E54D24FDF8884D8642
:100F60000308860408860518188B3E8C3F8D408B3D
:100F7000828C838DF012149DAB82AC838B4874FFFE
:100F8000B5470385484720051DC3E54895465016DB
:100F9000E546C39548F546AB461546EB60087582B5
:100FA000201209B080F1853E82853F838540F01292
:100FB000054AFBFA6029AB471547C3E464808BF010
:100FC00063F08095F050188A821209B0AB3EAC3FB6
:100FD000AD400BBB00010C8B3E8C3F8D4080C72089
:100FE00005030210C0C3E548954640030210C0E562
:100FF00046C39548F546AB461546EB70030210C054
:101000007582201209B080EEE54D24FDF8884D86EA
:101010000308860408860518188B3E8C3F8D40E532
:1010200040FB30E7047A438013EB546060047A504D
:10103000800AEB30E6047A4980027A588A82C0023C
:101040001209B075823A1209B07582301209B07572
:1010500082781209B0D002BA4902800BBA500280DD
:1010600006853F821209E3853E821209E38051D250
:101070000975450A804A754508804575450A8040CE
:10108000754510803BD2028037D2038033D2048072
:101090002FE54D24FDF8884D860308860408860553
:1010A00018188B3E8C3F8D408B828C838DF0E543EE
:1010B0001206B6A3E5441206B680058A821209B06C
:1010C000200206200303300470E54D24FCF8884D0F
:1010D00086030886040886050886061818188B3EBD
:1010E0008C3F8D408E41E53EE53FE540E5418B82FA
:1010F0008C838DF0EE12137E74FFB547037547069F
:10110000300427747F5541FB8B42E542EB2BFB8B70
:1011100042E54030E70674014542F542E542246865
:101120004006749925424002D203300306120CACEB
:10113000020D9A120A39020D9AE5457003020D9AC2
:101140007B53300A2BE54D14F8884DE6FC3395E0CF
:10115000FDFEFF8C3E8D3F8E408F4120095EAC3EF0
:101160007D007E007F008C3E8D3F8E408F41804C05
:10117000300B1FE54D24FCF8884D860408860508D1
:1011800086060886071818188C3E8D3F8E408F41C2
:10119000802AE54D24FEF8884D860408860518ED62
:1011A0003395E0FEFF8C3E8D3F8E408F4120090C31
:1011B000AC3EAD3F7E007F008E408F41300C43E55A
:1011C0003E453F4540454160397408B5450C758240
:1011D00030C0031209B0D00380287410B5452375C0
:1011E0008230C0031209B0D00330010C758278C080
:1011F000031209B0D003800A758258C0031209B0E7
:10120000D003300925AC3EAD3FAE40E541FF30E7AD
:1012100017C3E49CFCE49DFDE49EFEE49FFF8C3E2E
:101220008D3F8E408F418002C209754800D20D8BE0
:1012300000754200C0001209FAD000200D0DE542F1
:10124000C4FCE6FD4CF61888038002A6420548B2AD
:101250000DE53E453F4540454170D68803E5467063
:101260000375460120061A200517E54804FCC395BE
:1012700046500E758220C0031209B0D00315468077
:10128000E930090E75822DC0031209B0D00315464E
:101290008024E548602030070E75822BC0031209B8
:1012A000B0D0031546800F30080C758220C00312A1
:1012B00009B0D003154620051EAC461546C3E548C7
:1012C0009C50273006047C3080027C208C82C00336
:1012D0001209B0D00380E2C3E54895465009E546BF
:1012E000C39548F54680037546008B00AB4815480A
:1012F000EB6022B20D200D0A08E6C4540FFB8B42AE
:1013000080078603740F5BF542854282C000120994
:10131000CAD00080D7200503020D9AAB461546EBD4
:101320007003020D9A7582201209B080EE8A821233
:1013300009B0020D9A85438285448322AA82BA0AA3
:101340000810990280FB75990D10990280FB8A990B
:1013500022FCABF0AA83A982749EF582C2D1EC3044
:10136000E716D2D1E9F42401F9EAF43400FAEBF4F7
:101370003400FBECF43400FC1208DF020890C0E0FB
:10138000F84582458345F07009F5F0FBFCFDFE024F
:10139000144CE823A2F792E0F8A982AA83D2F7AB13
:1013A000F07C007E07C3749798404074FF2EFE7453
:1013B0000A89F0A4F985F082740A8AF0A4FA85F00B
:1013C00083740A8BF0A4FB740529F9EA3582FAEBE1
:1013D0003583FB740035F0FCC3EC13FCEB13FBEA24
:1013E00013FAE913F908EC70EF80BAE8C3947FF8B8
:1013F0008B838EF0E4FBFCFDFEFF08C3E933F9EAC2
:1014000033FAE58333F583EB3BD4FBEC3CD4FCEDC2
:101410003DD4FDEE3ED4FEEF3FD4FF602D05F074C9
:10142000052BD4FBE43CD4FCE43DD4FDE43ED4FEE7
:10143000E43FD4FF758204C3EF13FFEE13FEED13F8
:10144000FDEC13FCEB13FBD582EDD8AF784ED0E06A
:1014500020E704762B8002762D087906E7C4540F26
:101460004430F608B90603762E08E7540F4430F6E8
:101470000819B902E7764508E5F020E704762B80E5
:1014800004762DF4040875F00A844430F608E5F07B
:101490004430F608E4F690004E75F04022AA82AB84
:1014A00083ACF07D007E008A828B838CF012054A2B
:1014B000FFA3AA82AB83EF60070DBD00EA0E80E7B1
:1014C0008D828E83220000000000000000000000DA
:00000001FF
